{
  "_format": "hh-sol-artifact-1",
  "contractName": "Lottery",
  "sourceName": "contracts/Lottery.sol",
  "abi": [
    {
      "inputs": [],
      "stateMutability": "nonpayable",
      "type": "constructor"
    },
    {
      "anonymous": false,
      "inputs": [
        {
          "indexed": true,
          "internalType": "address",
          "name": "player",
          "type": "address"
        }
      ],
      "name": "PlayerEntered",
      "type": "event"
    },
    {
      "anonymous": false,
      "inputs": [
        {
          "indexed": true,
          "internalType": "address",
          "name": "winner",
          "type": "address"
        },
        {
          "indexed": false,
          "internalType": "uint256",
          "name": "amount",
          "type": "uint256"
        }
      ],
      "name": "WinnerPicked",
      "type": "event"
    },
    {
      "inputs": [],
      "name": "enter",
      "outputs": [],
      "stateMutability": "payable",
      "type": "function"
    },
    {
      "inputs": [],
      "name": "getBalance",
      "outputs": [
        {
          "internalType": "uint256",
          "name": "",
          "type": "uint256"
        }
      ],
      "stateMutability": "view",
      "type": "function"
    },
    {
      "inputs": [],
      "name": "getPlayers",
      "outputs": [
        {
          "internalType": "address[]",
          "name": "",
          "type": "address[]"
        }
      ],
      "stateMutability": "view",
      "type": "function"
    },
    {
      "inputs": [],
      "name": "manager",
      "outputs": [
        {
          "internalType": "address",
          "name": "",
          "type": "address"
        }
      ],
      "stateMutability": "view",
      "type": "function"
    },
    {
      "inputs": [],
      "name": "pickWinner",
      "outputs": [],
      "stateMutability": "nonpayable",
      "type": "function"
    },
    {
      "inputs": [
        {
          "internalType": "uint256",
          "name": "",
          "type": "uint256"
        }
      ],
      "name": "players",
      "outputs": [
        {
          "internalType": "address",
          "name": "",
          "type": "address"
        }
      ],
      "stateMutability": "view",
      "type": "function"
    }
  ],
  "bytecode": "0x6080604052348015600f57600080fd5b50336000806101000a81548173ffffffffffffffffffffffffffffffffffffffff021916908373ffffffffffffffffffffffffffffffffffffffff160217905550610bb58061005f6000396000f3fe6080604052600436106100555760003560e01c806312065fe01461005a578063481c6a75146100855780635d495aea146100b05780638b5b9ccc146100c7578063e97dcb62146100f2578063f71d96cb146100fc575b600080fd5b34801561006657600080fd5b5061006f610139565b60405161007c919061063f565b60405180910390f35b34801561009157600080fd5b5061009a610141565b6040516100a7919061069b565b60405180910390f35b3480156100bc57600080fd5b506100c5610165565b005b3480156100d357600080fd5b506100dc6103c0565b6040516100e99190610774565b60405180910390f35b6100fa61044e565b005b34801561010857600080fd5b50610123600480360381019061011e91906107c7565b610540565b604051610130919061069b565b60405180910390f35b600047905090565b60008054906101000a900473ffffffffffffffffffffffffffffffffffffffff1681565b60008054906101000a900473ffffffffffffffffffffffffffffffffffffffff1673ffffffffffffffffffffffffffffffffffffffff163373ffffffffffffffffffffffffffffffffffffffff16146101f3576040517f08c379a00000000000000000000000000000000000000000000000000000000081526004016101ea90610851565b60405180910390fd5b60006001805490501161023b576040517f08c379a0000000000000000000000000000000000000000000000000000000008152600401610232906108bd565b60405180910390fd5b60006001805490504244600160405160200161025993929190610a1c565b6040516020818303038152906040528051906020012060001c61027c9190610a84565b905060006001828154811061029457610293610ab5565b5b9060005260206000200160009054906101000a900473ffffffffffffffffffffffffffffffffffffffff16905060004790508173ffffffffffffffffffffffffffffffffffffffff166108fc829081150290604051600060405180830381858888f1935050505015801561030c573d6000803e3d6000fd5b508173ffffffffffffffffffffffffffffffffffffffff167f64791dbae5677392ba76761a5273633cec8f1d9d8cfe808da7bac6ef16a880be82604051610353919061063f565b60405180910390a2600067ffffffffffffffff81111561037657610375610ae4565b5b6040519080825280602002602001820160405280156103a45781602001602082028036833780820191505090505b50600190805190602001906103ba92919061057f565b50505050565b6060600180548060200260200160405190810160405280929190818152602001828054801561044457602002820191906000526020600020905b8160009054906101000a900473ffffffffffffffffffffffffffffffffffffffff1673ffffffffffffffffffffffffffffffffffffffff16815260200190600101908083116103fa575b5050505050905090565b662386f26fc10000341015610498576040517f08c379a000000000000000000000000000000000000000000000000000000000815260040161048f90610b5f565b60405180910390fd5b6001339080600181540180825580915050600190039060005260206000200160009091909190916101000a81548173ffffffffffffffffffffffffffffffffffffffff021916908373ffffffffffffffffffffffffffffffffffffffff1602179055503373ffffffffffffffffffffffffffffffffffffffff167f4d999952f9aa655a216ee2df5968ca0e670e9582ddc96cfe7d8168114b8ca37f60405160405180910390a2565b6001818154811061055057600080fd5b906000526020600020016000915054906101000a900473ffffffffffffffffffffffffffffffffffffffff1681565b8280548282559060005260206000209081019282156105f8579160200282015b828111156105f75782518260006101000a81548173ffffffffffffffffffffffffffffffffffffffff021916908373ffffffffffffffffffffffffffffffffffffffff1602179055509160200191906001019061059f565b5b5090506106059190610609565b5090565b5b8082111561062257600081600090555060010161060a565b5090565b6000819050919050565b61063981610626565b82525050565b60006020820190506106546000830184610630565b92915050565b600073ffffffffffffffffffffffffffffffffffffffff82169050919050565b60006106858261065a565b9050919050565b6106958161067a565b82525050565b60006020820190506106b0600083018461068c565b92915050565b600081519050919050565b600082825260208201905092915050565b6000819050602082019050919050565b6106eb8161067a565b82525050565b60006106fd83836106e2565b60208301905092915050565b6000602082019050919050565b6000610721826106b6565b61072b81856106c1565b9350610736836106d2565b8060005b8381101561076757815161074e88826106f1565b975061075983610709565b92505060018101905061073a565b5085935050505092915050565b6000602082019050818103600083015261078e8184610716565b905092915050565b600080fd5b6107a481610626565b81146107af57600080fd5b50565b6000813590506107c18161079b565b92915050565b6000602082840312156107dd576107dc610796565b5b60006107eb848285016107b2565b91505092915050565b600082825260208201905092915050565b7f4f6e6c79206d616e616765722063616e2063616c6c2074686973000000000000600082015250565b600061083b601a836107f4565b915061084682610805565b602082019050919050565b6000602082019050818103600083015261086a8161082e565b9050919050565b7f4e6f20706c617965727320696e20746865206c6f747465727900000000000000600082015250565b60006108a76019836107f4565b91506108b282610871565b602082019050919050565b600060208201905081810360008301526108d68161089a565b9050919050565b6000819050919050565b6108f86108f382610626565b6108dd565b82525050565b600081549050919050565b600081905092915050565b60008190508160005260206000209050919050565b6109328161067a565b82525050565b60006109448383610929565b60208301905092915050565b60008160001c9050919050565b600073ffffffffffffffffffffffffffffffffffffffff82169050919050565b600061099061098b83610950565b61095d565b9050919050565b60006109a3825461097d565b9050919050565b6000600182019050919050565b60006109c2826108fe565b6109cc8185610909565b93506109d783610914565b8060005b83811015610a0f576109ec82610997565b6109f68882610938565b9750610a01836109aa565b9250506001810190506109db565b5085935050505092915050565b6000610a2882866108e7565b602082019150610a3882856108e7565b602082019150610a4882846109b7565b9150819050949350505050565b7f4e487b7100000000000000000000000000000000000000000000000000000000600052601260045260246000fd5b6000610a8f82610626565b9150610a9a83610626565b925082610aaa57610aa9610a55565b5b828206905092915050565b7f4e487b7100000000000000000000000000000000000000000000000000000000600052603260045260246000fd5b7f4e487b7100000000000000000000000000000000000000000000000000000000600052604160045260246000fd5b7f4d696e696d756d20656e74727920697320302e30312045544800000000000000600082015250565b6000610b496019836107f4565b9150610b5482610b13565b602082019050919050565b60006020820190508181036000830152610b7881610b3c565b905091905056fea26469706673582212209b68ea6b3046dde859693eb671380fa59fd8db3874bf25a6bbf617bf0037c01e64736f6c634300081c0033",
  "linkReferences": {},
  "deployedLinkReferences": {}
}